{
  "_format": "hh-sol-artifact-1",
  "contractName": "Contracts",
  "sourceName": "contracts/Contracts.sol",
  "abi": [
    {
      "inputs": [],
      "stateMutability": "nonpayable",
      "type": "constructor"
    },
    {
      "inputs": [],
      "name": "ApprovalCallerNotOwnerNorApproved",
      "type": "error"
    },
    {
      "inputs": [],
      "name": "ApprovalQueryForNonexistentToken",
      "type": "error"
    },
    {
      "inputs": [],
      "name": "ApproveToCaller",
      "type": "error"
    },
    {
      "inputs": [],
      "name": "BalanceQueryForZeroAddress",
      "type": "error"
    },
    {
      "inputs": [],
      "name": "MintERC2309QuantityExceedsLimit",
      "type": "error"
    },
    {
      "inputs": [],
      "name": "MintToZeroAddress",
      "type": "error"
    },
    {
      "inputs": [],
      "name": "MintZeroQuantity",
      "type": "error"
    },
    {
      "inputs": [],
      "name": "OwnerQueryForNonexistentToken",
      "type": "error"
    },
    {
      "inputs": [],
      "name": "OwnershipNotInitializedForExtraData",
      "type": "error"
    },
    {
      "inputs": [],
      "name": "TransferCallerNotOwnerNorApproved",
      "type": "error"
    },
    {
      "inputs": [],
      "name": "TransferFromIncorrectOwner",
      "type": "error"
    },
    {
      "inputs": [],
      "name": "TransferToNonERC721ReceiverImplementer",
      "type": "error"
    },
    {
      "inputs": [],
      "name": "TransferToZeroAddress",
      "type": "error"
    },
    {
      "inputs": [],
      "name": "URIQueryForNonexistentToken",
      "type": "error"
    },
    {
      "anonymous": false,
      "inputs": [
        {
          "indexed": true,
          "internalType": "address",
          "name": "owner",
          "type": "address"
        },
        {
          "indexed": true,
          "internalType": "address",
          "name": "approved",
          "type": "address"
        },
        {
          "indexed": true,
          "internalType": "uint256",
          "name": "tokenId",
          "type": "uint256"
        }
      ],
      "name": "Approval",
      "type": "event"
    },
    {
      "anonymous": false,
      "inputs": [
        {
          "indexed": true,
          "internalType": "address",
          "name": "owner",
          "type": "address"
        },
        {
          "indexed": true,
          "internalType": "address",
          "name": "operator",
          "type": "address"
        },
        {
          "indexed": false,
          "internalType": "bool",
          "name": "approved",
          "type": "bool"
        }
      ],
      "name": "ApprovalForAll",
      "type": "event"
    },
    {
      "anonymous": false,
      "inputs": [
        {
          "indexed": true,
          "internalType": "uint256",
          "name": "fromTokenId",
          "type": "uint256"
        },
        {
          "indexed": false,
          "internalType": "uint256",
          "name": "toTokenId",
          "type": "uint256"
        },
        {
          "indexed": true,
          "internalType": "address",
          "name": "from",
          "type": "address"
        },
        {
          "indexed": true,
          "internalType": "address",
          "name": "to",
          "type": "address"
        }
      ],
      "name": "ConsecutiveTransfer",
      "type": "event"
    },
    {
      "anonymous": false,
      "inputs": [
        {
          "indexed": true,
          "internalType": "address",
          "name": "previousOwner",
          "type": "address"
        },
        {
          "indexed": true,
          "internalType": "address",
          "name": "newOwner",
          "type": "address"
        }
      ],
      "name": "OwnershipTransferred",
      "type": "event"
    },
    {
      "anonymous": false,
      "inputs": [
        {
          "indexed": true,
          "internalType": "address",
          "name": "from",
          "type": "address"
        },
        {
          "indexed": true,
          "internalType": "address",
          "name": "to",
          "type": "address"
        },
        {
          "indexed": true,
          "internalType": "uint256",
          "name": "tokenId",
          "type": "uint256"
        }
      ],
      "name": "Transfer",
      "type": "event"
    },
    {
      "inputs": [],
      "name": "MAX_FREE_SUPPLY",
      "outputs": [
        {
          "internalType": "uint256",
          "name": "",
          "type": "uint256"
        }
      ],
      "stateMutability": "view",
      "type": "function"
    },
    {
      "inputs": [],
      "name": "MAX_PER_TX",
      "outputs": [
        {
          "internalType": "uint256",
          "name": "",
          "type": "uint256"
        }
      ],
      "stateMutability": "view",
      "type": "function"
    },
    {
      "inputs": [],
      "name": "MAX_PER_WALLET",
      "outputs": [
        {
          "internalType": "uint256",
          "name": "",
          "type": "uint256"
        }
      ],
      "stateMutability": "view",
      "type": "function"
    },
    {
      "inputs": [],
      "name": "MAX_SUPPLY",
      "outputs": [
        {
          "internalType": "uint256",
          "name": "",
          "type": "uint256"
        }
      ],
      "stateMutability": "view",
      "type": "function"
    },
    {
      "inputs": [],
      "name": "PRICE",
      "outputs": [
        {
          "internalType": "uint256",
          "name": "",
          "type": "uint256"
        }
      ],
      "stateMutability": "view",
      "type": "function"
    },
    {
      "inputs": [
        {
          "internalType": "address",
          "name": "to",
          "type": "address"
        },
        {
          "internalType": "uint256",
          "name": "tokenId",
          "type": "uint256"
        }
      ],
      "name": "approve",
      "outputs": [],
      "stateMutability": "nonpayable",
      "type": "function"
    },
    {
      "inputs": [
        {
          "internalType": "address",
          "name": "owner",
          "type": "address"
        }
      ],
      "name": "balanceOf",
      "outputs": [
        {
          "internalType": "uint256",
          "name": "",
          "type": "uint256"
        }
      ],
      "stateMutability": "view",
      "type": "function"
    },
    {
      "inputs": [],
      "name": "baseTokenURI",
      "outputs": [
        {
          "internalType": "string",
          "name": "",
          "type": "string"
        }
      ],
      "stateMutability": "view",
      "type": "function"
    },
    {
      "inputs": [
        {
          "internalType": "uint256[]",
          "name": "tokenids",
          "type": "uint256[]"
        }
      ],
      "name": "burn",
      "outputs": [],
      "stateMutability": "nonpayable",
      "type": "function"
    },
    {
      "inputs": [
        {
          "internalType": "uint256",
          "name": "tokenId",
          "type": "uint256"
        }
      ],
      "name": "getApproved",
      "outputs": [
        {
          "internalType": "address",
          "name": "",
          "type": "address"
        }
      ],
      "stateMutability": "view",
      "type": "function"
    },
    {
      "inputs": [],
      "name": "initialize",
      "outputs": [
        {
          "internalType": "bool",
          "name": "",
          "type": "bool"
        }
      ],
      "stateMutability": "view",
      "type": "function"
    },
    {
      "inputs": [
        {
          "internalType": "address",
          "name": "owner",
          "type": "address"
        },
        {
          "internalType": "address",
          "name": "operator",
          "type": "address"
        }
      ],
      "name": "isApprovedForAll",
      "outputs": [
        {
          "internalType": "bool",
          "name": "",
          "type": "bool"
        }
      ],
      "stateMutability": "view",
      "type": "function"
    },
    {
      "inputs": [],
      "name": "maxFreePerTx",
      "outputs": [
        {
          "internalType": "uint256",
          "name": "",
          "type": "uint256"
        }
      ],
      "stateMutability": "view",
      "type": "function"
    },
    {
      "inputs": [],
      "name": "name",
      "outputs": [
        {
          "internalType": "string",
          "name": "",
          "type": "string"
        }
      ],
      "stateMutability": "view",
      "type": "function"
    },
    {
      "inputs": [],
      "name": "owner",
      "outputs": [
        {
          "internalType": "address",
          "name": "",
          "type": "address"
        }
      ],
      "stateMutability": "view",
      "type": "function"
    },
    {
      "inputs": [
        {
          "internalType": "uint256",
          "name": "tokenId",
          "type": "uint256"
        }
      ],
      "name": "ownerOf",
      "outputs": [
        {
          "internalType": "address",
          "name": "",
          "type": "address"
        }
      ],
      "stateMutability": "view",
      "type": "function"
    },
    {
      "inputs": [
        {
          "internalType": "address",
          "name": "",
          "type": "address"
        }
      ],
      "name": "qtyFreeMinted",
      "outputs": [
        {
          "internalType": "uint256",
          "name": "",
          "type": "uint256"
        }
      ],
      "stateMutability": "view",
      "type": "function"
    },
    {
      "inputs": [
        {
          "internalType": "address",
          "name": "",
          "type": "address"
        }
      ],
      "name": "qtyMinted",
      "outputs": [
        {
          "internalType": "uint256",
          "name": "",
          "type": "uint256"
        }
      ],
      "stateMutability": "view",
      "type": "function"
    },
    {
      "inputs": [],
      "name": "renounceOwnership",
      "outputs": [],
      "stateMutability": "nonpayable",
      "type": "function"
    },
    {
      "inputs": [
        {
          "internalType": "bool",
          "name": "_revealed",
          "type": "bool"
        }
      ],
      "name": "reveal",
      "outputs": [],
      "stateMutability": "nonpayable",
      "type": "function"
    },
    {
      "inputs": [],
      "name": "revealed",
      "outputs": [
        {
          "internalType": "bool",
          "name": "",
          "type": "bool"
        }
      ],
      "stateMutability": "view",
      "type": "function"
    },
    {
      "inputs": [
        {
          "internalType": "address",
          "name": "from",
          "type": "address"
        },
        {
          "internalType": "address",
          "name": "to",
          "type": "address"
        },
        {
          "internalType": "uint256",
          "name": "tokenId",
          "type": "uint256"
        }
      ],
      "name": "safeTransferFrom",
      "outputs": [],
      "stateMutability": "nonpayable",
      "type": "function"
    },
    {
      "inputs": [
        {
          "internalType": "address",
          "name": "from",
          "type": "address"
        },
        {
          "internalType": "address",
          "name": "to",
          "type": "address"
        },
        {
          "internalType": "uint256",
          "name": "tokenId",
          "type": "uint256"
        },
        {
          "internalType": "bytes",
          "name": "_data",
          "type": "bytes"
        }
      ],
      "name": "safeTransferFrom",
      "outputs": [],
      "stateMutability": "nonpayable",
      "type": "function"
    },
    {
      "inputs": [
        {
          "internalType": "address",
          "name": "operator",
          "type": "address"
        },
        {
          "internalType": "bool",
          "name": "approved",
          "type": "bool"
        }
      ],
      "name": "setApprovalForAll",
      "outputs": [],
      "stateMutability": "nonpayable",
      "type": "function"
    },
    {
      "inputs": [
        {
          "internalType": "string",
          "name": "baseURI",
          "type": "string"
        }
      ],
      "name": "setBaseURI",
      "outputs": [],
      "stateMutability": "nonpayable",
      "type": "function"
    },
    {
      "inputs": [
        {
          "internalType": "bool",
          "name": "_initialize",
          "type": "bool"
        }
      ],
      "name": "setInitialize",
      "outputs": [],
      "stateMutability": "nonpayable",
      "type": "function"
    },
    {
      "inputs": [
        {
          "internalType": "uint256",
          "name": "_amount",
          "type": "uint256"
        }
      ],
      "name": "setMaxFreeAmount",
      "outputs": [],
      "stateMutability": "nonpayable",
      "type": "function"
    },
    {
      "inputs": [
        {
          "internalType": "uint256",
          "name": "_limit",
          "type": "uint256"
        }
      ],
      "name": "setMaxLimitPerTransaction",
      "outputs": [],
      "stateMutability": "nonpayable",
      "type": "function"
    },
    {
      "inputs": [
        {
          "internalType": "uint256",
          "name": "_amount",
          "type": "uint256"
        }
      ],
      "name": "setMaxPerWallet",
      "outputs": [],
      "stateMutability": "nonpayable",
      "type": "function"
    },
    {
      "inputs": [
        {
          "internalType": "uint256",
          "name": "_price",
          "type": "uint256"
        }
      ],
      "name": "setPrice",
      "outputs": [],
      "stateMutability": "nonpayable",
      "type": "function"
    },
    {
      "inputs": [
        {
          "internalType": "bytes4",
          "name": "interfaceId",
          "type": "bytes4"
        }
      ],
      "name": "supportsInterface",
      "outputs": [
        {
          "internalType": "bool",
          "name": "",
          "type": "bool"
        }
      ],
      "stateMutability": "view",
      "type": "function"
    },
    {
      "inputs": [],
      "name": "symbol",
      "outputs": [
        {
          "internalType": "string",
          "name": "",
          "type": "string"
        }
      ],
      "stateMutability": "view",
      "type": "function"
    },
    {
      "inputs": [
        {
          "internalType": "uint256",
          "name": "_tokenId",
          "type": "uint256"
        }
      ],
      "name": "tokenURI",
      "outputs": [
        {
          "internalType": "string",
          "name": "",
          "type": "string"
        }
      ],
      "stateMutability": "view",
      "type": "function"
    },
    {
      "inputs": [],
      "name": "totalSupply",
      "outputs": [
        {
          "internalType": "uint256",
          "name": "",
          "type": "uint256"
        }
      ],
      "stateMutability": "view",
      "type": "function"
    },
    {
      "inputs": [
        {
          "internalType": "address",
          "name": "from",
          "type": "address"
        },
        {
          "internalType": "address",
          "name": "to",
          "type": "address"
        },
        {
          "internalType": "uint256",
          "name": "tokenId",
          "type": "uint256"
        }
      ],
      "name": "transferFrom",
      "outputs": [],
      "stateMutability": "nonpayable",
      "type": "function"
    },
    {
      "inputs": [
        {
          "internalType": "address",
          "name": "newOwner",
          "type": "address"
        }
      ],
      "name": "transferOwnership",
      "outputs": [],
      "stateMutability": "nonpayable",
      "type": "function"
    },
    {
      "inputs": [
        {
          "internalType": "uint256",
          "name": "amount",
          "type": "uint256"
        }
      ],
      "name": "mint",
      "outputs": [],
      "stateMutability": "payable",
      "type": "function"
    },
    {
      "inputs": [],
      "name": "withdraw",
      "outputs": [],
      "stateMutability": "nonpayable",
      "type": "function"
    }
  ],
  "bytecode": "0x60806040526040518060a00160405280606181526020016200413e60619139600a90805190602001906200003592919062000256565b5061029a600b556000600c556002600d556617a93c16344000600e556002600f5560026010556001601160006101000a81548160ff0219169083151502179055506001601160016101000a81548160ff0219169083151502179055503480156200009e57600080fd5b506040518060400160405280600e81526020017f416b756d6147616e6773746572730000000000000000000000000000000000008152506040518060400160405280600381526020017f414b47000000000000000000000000000000000000000000000000000000000081525081600290805190602001906200012392919062000256565b5080600390805190602001906200013c92919062000256565b506200014d6200018360201b60201c565b600081905550505062000175620001696200018860201b60201c565b6200019060201b60201c565b60016009819055506200036b565b600090565b600033905090565b6000600860009054906101000a900473ffffffffffffffffffffffffffffffffffffffff16905081600860006101000a81548173ffffffffffffffffffffffffffffffffffffffff021916908373ffffffffffffffffffffffffffffffffffffffff1602179055508173ffffffffffffffffffffffffffffffffffffffff168173ffffffffffffffffffffffffffffffffffffffff167f8be0079c531659141344cd1fd0a4f28419497f9722a3daafe3b4186f6b6457e060405160405180910390a35050565b828054620002649062000306565b90600052602060002090601f016020900481019282620002885760008555620002d4565b82601f10620002a357805160ff1916838001178555620002d4565b82800160010185558215620002d4579182015b82811115620002d3578251825591602001919060010190620002b6565b5b509050620002e39190620002e7565b5090565b5b8082111562000302576000816000905550600101620002e8565b5090565b600060028204905060018216806200031f57607f821691505b602082108114156200033657620003356200033c565b5b50919050565b7f4e487b7100000000000000000000000000000000000000000000000000000000600052602260045260246000fd5b613dc3806200037b6000396000f3fe6080604052600436106102255760003560e01c8063715018a611610123578063a22cb465116100ab578063d547cfb71161006f578063d547cfb7146107e4578063e268e4d31461080f578063e985e9c514610838578063f2fde38b14610875578063f43a22dc1461089e57610225565b8063a22cb465146106ef578063ad66639e14610718578063b80f55c914610755578063b88d4fde1461077e578063c87b56dd146107a757610225565b80638da5cb5b116100f25780638da5cb5b1461061e57806391b7f5ed14610649578063940cd05b1461067257806395d89b411461069b5780639e9fcffc146106c657610225565b8063715018a6146105865780637dc949b21461059d5780638129fc1c146105c85780638d859f3e146105f357610225565b80632a9e90d4116101b15780635183022711610175578063518302271461048f57806355f804b3146104ba5780636352211e146104e35780636a3c167b1461052057806370a082311461054957610225565b80632a9e90d4146103cb57806332cb6b0c146103e7578063370e46cc146104125780633ccfd60b1461044f57806342842e0e1461046657610225565b8063095ea7b3116101f8578063095ea7b3146102fa5780630c23bb3f146103235780630f2cdd6c1461034c57806318160ddd1461037757806323b872dd146103a257610225565b806301ffc9a71461022a57806302ddb65b1461026757806306fdde0314610292578063081812fc146102bd575b600080fd5b34801561023657600080fd5b50610251600480360381019061024c9190613022565b6108c9565b60405161025e91906134d3565b60405180910390f35b34801561027357600080fd5b5061027c61095b565b6040516102899190613650565b60405180910390f35b34801561029e57600080fd5b506102a7610961565b6040516102b491906134ee565b60405180910390f35b3480156102c957600080fd5b506102e460048036038101906102df91906130b5565b6109f3565b6040516102f19190613443565b60405180910390f35b34801561030657600080fd5b50610321600480360381019061031c9190612f7c565b610a6f565b005b34801561032f57600080fd5b5061034a600480360381019061034591906130b5565b610bb0565b005b34801561035857600080fd5b50610361610c36565b60405161036e9190613650565b60405180910390f35b34801561038357600080fd5b5061038c610c3c565b6040516103999190613650565b60405180910390f35b3480156103ae57600080fd5b506103c960048036038101906103c49190612e76565b610c53565b005b6103e560048036038101906103e091906130b5565b610f78565b005b3480156103f357600080fd5b506103fc611344565b6040516104099190613650565b60405180910390f35b34801561041e57600080fd5b5061043960048036038101906104349190612e11565b61134a565b6040516104469190613650565b60405180910390f35b34801561045b57600080fd5b50610464611362565b005b34801561047257600080fd5b5061048d60048036038101906104889190612e76565b611440565b005b34801561049b57600080fd5b506104a4611460565b6040516104b191906134d3565b60405180910390f35b3480156104c657600080fd5b506104e160048036038101906104dc9190613074565b611473565b005b3480156104ef57600080fd5b5061050a600480360381019061050591906130b5565b611509565b6040516105179190613443565b60405180910390f35b34801561052c57600080fd5b5061054760048036038101906105429190612ff9565b61151b565b005b34801561055557600080fd5b50610570600480360381019061056b9190612e11565b6115b4565b60405161057d9190613650565b60405180910390f35b34801561059257600080fd5b5061059b61166d565b005b3480156105a957600080fd5b506105b26116f5565b6040516105bf9190613650565b60405180910390f35b3480156105d457600080fd5b506105dd6116fb565b6040516105ea91906134d3565b60405180910390f35b3480156105ff57600080fd5b5061060861170e565b6040516106159190613650565b60405180910390f35b34801561062a57600080fd5b50610633611714565b6040516106409190613443565b60405180910390f35b34801561065557600080fd5b50610670600480360381019061066b91906130b5565b61173e565b005b34801561067e57600080fd5b5061069960048036038101906106949190612ff9565b6117c4565b005b3480156106a757600080fd5b506106b061185d565b6040516106bd91906134ee565b60405180910390f35b3480156106d257600080fd5b506106ed60048036038101906106e891906130b5565b6118ef565b005b3480156106fb57600080fd5b5061071660048036038101906107119190612f40565b611975565b005b34801561072457600080fd5b5061073f600480360381019061073a9190612e11565b611aed565b60405161074c9190613650565b60405180910390f35b34801561076157600080fd5b5061077c60048036038101906107779190612fb8565b611b05565b005b34801561078a57600080fd5b506107a560048036038101906107a09190612ec5565b611c32565b005b3480156107b357600080fd5b506107ce60048036038101906107c991906130b5565b611ca5565b6040516107db91906134ee565b60405180910390f35b3480156107f057600080fd5b506107f9611d21565b60405161080691906134ee565b60405180910390f35b34801561081b57600080fd5b50610836600480360381019061083191906130b5565b611daf565b005b34801561084457600080fd5b5061085f600480360381019061085a9190612e3a565b611e35565b60405161086c91906134d3565b60405180910390f35b34801561088157600080fd5b5061089c60048036038101906108979190612e11565b611ec9565b005b3480156108aa57600080fd5b506108b3611fc1565b6040516108c09190613650565b60405180910390f35b60006301ffc9a760e01b827bffffffffffffffffffffffffffffffffffffffffffffffffffffffff1916148061092457506380ac58cd60e01b827bffffffffffffffffffffffffffffffffffffffffffffffffffffffff1916145b806109545750635b5e139f60e01b827bffffffffffffffffffffffffffffffffffffffffffffffffffffffff1916145b9050919050565b600c5481565b6060600280546109709061394c565b80601f016020809104026020016040519081016040528092919081815260200182805461099c9061394c565b80156109e95780601f106109be576101008083540402835291602001916109e9565b820191906000526020600020905b8154815290600101906020018083116109cc57829003601f168201915b5050505050905090565b60006109fe82611fc7565b610a34576040517fcf4700e400000000000000000000000000000000000000000000000000000000815260040160405180910390fd5b6006600083815260200190815260200160002060009054906101000a900473ffffffffffffffffffffffffffffffffffffffff169050919050565b6000610a7a82611509565b90508073ffffffffffffffffffffffffffffffffffffffff16610a9b612026565b73ffffffffffffffffffffffffffffffffffffffff1614610afe57610ac781610ac2612026565b611e35565b610afd576040517fcfb3b94200000000000000000000000000000000000000000000000000000000815260040160405180910390fd5b5b826006600084815260200190815260200160002060006101000a81548173ffffffffffffffffffffffffffffffffffffffff021916908373ffffffffffffffffffffffffffffffffffffffff160217905550818373ffffffffffffffffffffffffffffffffffffffff168273ffffffffffffffffffffffffffffffffffffffff167f8c5be1e5ebec7d5bd14f71427d1e84f3dd0314c0f7b2291e5b200ac8c7c3b92560405160405180910390a4505050565b610bb861202e565b73ffffffffffffffffffffffffffffffffffffffff16610bd6611714565b73ffffffffffffffffffffffffffffffffffffffff1614610c2c576040517f08c379a0000000000000000000000000000000000000000000000000000000008152600401610c23906135b0565b60405180910390fd5b80600c8190555050565b60105481565b6000610c46612036565b6001546000540303905090565b6000610c5e8261203b565b90508373ffffffffffffffffffffffffffffffffffffffff168173ffffffffffffffffffffffffffffffffffffffff1614610cc5576040517fa114810000000000000000000000000000000000000000000000000000000000815260040160405180910390fd5b600080610cd184612109565b91509150610ce78187610ce2612026565b61212b565b610d3357610cfc86610cf7612026565b611e35565b610d32576040517f59c896be00000000000000000000000000000000000000000000000000000000815260040160405180910390fd5b5b600073ffffffffffffffffffffffffffffffffffffffff168573ffffffffffffffffffffffffffffffffffffffff161415610d9a576040517fea553b3400000000000000000000000000000000000000000000000000000000815260040160405180910390fd5b610da7868686600161216f565b8015610db257600082555b600560008773ffffffffffffffffffffffffffffffffffffffff1673ffffffffffffffffffffffffffffffffffffffff168152602001908152602001600020600081546001900391905081905550600560008673ffffffffffffffffffffffffffffffffffffffff1673ffffffffffffffffffffffffffffffffffffffff1681526020019081526020016000206000815460010191905081905550610e8085610e5c888887612175565b7c02000000000000000000000000000000000000000000000000000000001761219d565b600460008681526020019081526020016000208190555060007c020000000000000000000000000000000000000000000000000000000084161415610f08576000600185019050600060046000838152602001908152602001600020541415610f06576000548114610f05578360046000838152602001908152602001600020819055505b5b505b838573ffffffffffffffffffffffffffffffffffffffff168773ffffffffffffffffffffffffffffffffffffffff167fddf252ad1be2c89b69c2b068fc378daa952ba7f163c4a11628f55a4df523b3ef60405160405180910390a4610f7086868660016121c8565b505050505050565b6000600e5490506000808311610f8f576001610f91565b825b905060006001600c54610fa49190613781565b82610fad610c3c565b610fb79190613781565b10801561100f5750600182601360003373ffffffffffffffffffffffffffffffffffffffff1673ffffffffffffffffffffffffffffffffffffffff1681526020019081526020016000205461100c9190613781565b11155b905080156110c6576000925081601360003373ffffffffffffffffffffffffffffffffffffffff1673ffffffffffffffffffffffffffffffffffffffff168152602001908152602001600020600082825461106a9190613781565b925050819055506001600f546110809190613781565b82106110c1576040517f08c379a00000000000000000000000000000000000000000000000000000000081526004016110b890613610565b60405180910390fd5b611117565b6001600d546110d59190613781565b8210611116576040517f08c379a000000000000000000000000000000000000000000000000000000000815260040161110d90613610565b60405180910390fd5b5b601160009054906101000a900460ff16611166576040517f08c379a000000000000000000000000000000000000000000000000000000000815260040161115d906135d0565b60405180910390fd5b82826111729190613808565b3410156111b4576040517f08c379a00000000000000000000000000000000000000000000000000000000081526004016111ab906135f0565b60405180910390fd5b6001600b546111c39190613781565b826111cc610c3c565b6111d69190613781565b10611216576040517f08c379a000000000000000000000000000000000000000000000000000000000815260040161120d90613510565b60405180910390fd5b60105482601260003373ffffffffffffffffffffffffffffffffffffffff1673ffffffffffffffffffffffffffffffffffffffff168152602001908152602001600020546112649190613781565b11156112a5576040517f08c379a000000000000000000000000000000000000000000000000000000000815260040161129c90613510565b60405180910390fd5b81601260003373ffffffffffffffffffffffffffffffffffffffff1673ffffffffffffffffffffffffffffffffffffffff16815260200190815260200160002060008282546112f49190613781565b9250508190555061130533836121ce565b7f2ace63da4546785d5cc13c2948cfbe0a49d13be30c4a0cbc1475358cba2754a533836040516113369291906134aa565b60405180910390a150505050565b600b5481565b60126020528060005260406000206000915090505481565b61136a61202e565b73ffffffffffffffffffffffffffffffffffffffff16611388611714565b73ffffffffffffffffffffffffffffffffffffffff16146113de576040517f08c379a00000000000000000000000000000000000000000000000000000000081526004016113d5906135b0565b60405180910390fd5b60026009541415611424576040517f08c379a000000000000000000000000000000000000000000000000000000000815260040161141b90613630565b60405180910390fd5b600260098190555061143633476121ec565b6001600981905550565b61145b83838360405180602001604052806000815250611c32565b505050565b601160019054906101000a900460ff1681565b61147b61202e565b73ffffffffffffffffffffffffffffffffffffffff16611499611714565b73ffffffffffffffffffffffffffffffffffffffff16146114ef576040517f08c379a00000000000000000000000000000000000000000000000000000000081526004016114e6906135b0565b60405180910390fd5b80600a9080519060200190611505929190612b9f565b5050565b60006115148261203b565b9050919050565b61152361202e565b73ffffffffffffffffffffffffffffffffffffffff16611541611714565b73ffffffffffffffffffffffffffffffffffffffff1614611597576040517f08c379a000000000000000000000000000000000000000000000000000000000815260040161158e906135b0565b60405180910390fd5b80601160006101000a81548160ff02191690831515021790555050565b60008073ffffffffffffffffffffffffffffffffffffffff168273ffffffffffffffffffffffffffffffffffffffff16141561161c576040517f8f4eb60400000000000000000000000000000000000000000000000000000000815260040160405180910390fd5b67ffffffffffffffff600560008473ffffffffffffffffffffffffffffffffffffffff1673ffffffffffffffffffffffffffffffffffffffff16815260200190815260200160002054169050919050565b61167561202e565b73ffffffffffffffffffffffffffffffffffffffff16611693611714565b73ffffffffffffffffffffffffffffffffffffffff16146116e9576040517f08c379a00000000000000000000000000000000000000000000000000000000081526004016116e0906135b0565b60405180910390fd5b6116f360006122e0565b565b600f5481565b601160009054906101000a900460ff1681565b600e5481565b6000600860009054906101000a900473ffffffffffffffffffffffffffffffffffffffff16905090565b61174661202e565b73ffffffffffffffffffffffffffffffffffffffff16611764611714565b73ffffffffffffffffffffffffffffffffffffffff16146117ba576040517f08c379a00000000000000000000000000000000000000000000000000000000081526004016117b1906135b0565b60405180910390fd5b80600e8190555050565b6117cc61202e565b73ffffffffffffffffffffffffffffffffffffffff166117ea611714565b73ffffffffffffffffffffffffffffffffffffffff1614611840576040517f08c379a0000000000000000000000000000000000000000000000000000000008152600401611837906135b0565b60405180910390fd5b80601160016101000a81548160ff02191690831515021790555050565b60606003805461186c9061394c565b80601f01602080910402602001604051908101604052809291908181526020018280546118989061394c565b80156118e55780601f106118ba576101008083540402835291602001916118e5565b820191906000526020600020905b8154815290600101906020018083116118c857829003601f168201915b5050505050905090565b6118f761202e565b73ffffffffffffffffffffffffffffffffffffffff16611915611714565b73ffffffffffffffffffffffffffffffffffffffff161461196b576040517f08c379a0000000000000000000000000000000000000000000000000000000008152600401611962906135b0565b60405180910390fd5b80600d8190555050565b61197d612026565b73ffffffffffffffffffffffffffffffffffffffff168273ffffffffffffffffffffffffffffffffffffffff1614156119e2576040517fb06307db00000000000000000000000000000000000000000000000000000000815260040160405180910390fd5b80600760006119ef612026565b73ffffffffffffffffffffffffffffffffffffffff1673ffffffffffffffffffffffffffffffffffffffff16815260200190815260200160002060008473ffffffffffffffffffffffffffffffffffffffff1673ffffffffffffffffffffffffffffffffffffffff16815260200190815260200160002060006101000a81548160ff0219169083151502179055508173ffffffffffffffffffffffffffffffffffffffff16611a9c612026565b73ffffffffffffffffffffffffffffffffffffffff167f17307eab39ab6107e8899845ad3d59bd9653f200f220920489ca2b5937696c3183604051611ae191906134d3565b60405180910390a35050565b60136020528060005260406000206000915090505481565b611b0d61202e565b73ffffffffffffffffffffffffffffffffffffffff16611b2b611714565b73ffffffffffffffffffffffffffffffffffffffff1614611b81576040517f08c379a0000000000000000000000000000000000000000000000000000000008152600401611b78906135b0565b60405180910390fd5b60008151905060005b81811015611bf4576000838281518110611bcd577f4e487b7100000000000000000000000000000000000000000000000000000000600052603260045260246000fd5b60200260200101519050611be0816123a6565b508080611bec906139af565b915050611b8a565b507f1847e8aa28e93415e08be496ff1f85eaa792dbf3ca4d30d43746de34a6e2b35d3382604051611c269291906134aa565b60405180910390a15050565b611c3d848484610c53565b60008373ffffffffffffffffffffffffffffffffffffffff163b14611c9f57611c68848484846123b4565b611c9e576040517fd1a57ed600000000000000000000000000000000000000000000000000000000815260040160405180910390fd5b5b50505050565b6060611cb082611fc7565b611cef576040517f08c379a0000000000000000000000000000000000000000000000000000000008152600401611ce690613530565b60405180910390fd5b600a611cfa83612514565b604051602001611d0b9291906133f4565b6040516020818303038152906040529050919050565b600a8054611d2e9061394c565b80601f0160208091040260200160405190810160405280929190818152602001828054611d5a9061394c565b8015611da75780601f10611d7c57610100808354040283529160200191611da7565b820191906000526020600020905b815481529060010190602001808311611d8a57829003601f168201915b505050505081565b611db761202e565b73ffffffffffffffffffffffffffffffffffffffff16611dd5611714565b73ffffffffffffffffffffffffffffffffffffffff1614611e2b576040517f08c379a0000000000000000000000000000000000000000000000000000000008152600401611e22906135b0565b60405180910390fd5b8060108190555050565b6000600760008473ffffffffffffffffffffffffffffffffffffffff1673ffffffffffffffffffffffffffffffffffffffff16815260200190815260200160002060008373ffffffffffffffffffffffffffffffffffffffff1673ffffffffffffffffffffffffffffffffffffffff16815260200190815260200160002060009054906101000a900460ff16905092915050565b611ed161202e565b73ffffffffffffffffffffffffffffffffffffffff16611eef611714565b73ffffffffffffffffffffffffffffffffffffffff1614611f45576040517f08c379a0000000000000000000000000000000000000000000000000000000008152600401611f3c906135b0565b60405180910390fd5b600073ffffffffffffffffffffffffffffffffffffffff168173ffffffffffffffffffffffffffffffffffffffff161415611fb5576040517f08c379a0000000000000000000000000000000000000000000000000000000008152600401611fac90613550565b60405180910390fd5b611fbe816122e0565b50565b600d5481565b600081611fd2612036565b11158015611fe1575060005482105b801561201f575060007c0100000000000000000000000000000000000000000000000000000000600460008581526020019081526020016000205416145b9050919050565b600033905090565b600033905090565b600090565b6000808290508061204a612036565b116120d2576000548110156120d15760006004600083815260200190815260200160002054905060007c0100000000000000000000000000000000000000000000000000000000821614156120cf575b60008114156120c557600460008360019003935083815260200190815260200160002054905061209a565b8092505050612104565b505b5b6040517fdf2d9b4200000000000000000000000000000000000000000000000000000000815260040160405180910390fd5b919050565b6000806000600690508360005280602052604060002092508254915050915091565b600073ffffffffffffffffffffffffffffffffffffffff8316925073ffffffffffffffffffffffffffffffffffffffff821691508382148383141790509392505050565b50505050565b60008060e883901c905060e861218c8686846126c1565b62ffffff16901b9150509392505050565b600073ffffffffffffffffffffffffffffffffffffffff83169250814260a01b178317905092915050565b50505050565b6121e88282604051806020016040528060008152506126ca565b5050565b8047101561222f576040517f08c379a000000000000000000000000000000000000000000000000000000000815260040161222690613590565b60405180910390fd5b60008273ffffffffffffffffffffffffffffffffffffffff16826040516122559061342e565b60006040518083038185875af1925050503d8060008114612292576040519150601f19603f3d011682016040523d82523d6000602084013e612297565b606091505b50509050806122db576040517f08c379a00000000000000000000000000000000000000000000000000000000081526004016122d290613570565b60405180910390fd5b505050565b6000600860009054906101000a900473ffffffffffffffffffffffffffffffffffffffff16905081600860006101000a81548173ffffffffffffffffffffffffffffffffffffffff021916908373ffffffffffffffffffffffffffffffffffffffff1602179055508173ffffffffffffffffffffffffffffffffffffffff168173ffffffffffffffffffffffffffffffffffffffff167f8be0079c531659141344cd1fd0a4f28419497f9722a3daafe3b4186f6b6457e060405160405180910390a35050565b6123b1816000612767565b50565b60008373ffffffffffffffffffffffffffffffffffffffff1663150b7a026123da612026565b8786866040518563ffffffff1660e01b81526004016123fc949392919061345e565b602060405180830381600087803b15801561241657600080fd5b505af192505050801561244757506040513d601f19601f82011682018060405250810190612444919061304b565b60015b6124c1573d8060008114612477576040519150601f19603f3d011682016040523d82523d6000602084013e61247c565b606091505b506000815114156124b9576040517fd1a57ed600000000000000000000000000000000000000000000000000000000815260040160405180910390fd5b805181602001fd5b63150b7a0260e01b7bffffffffffffffffffffffffffffffffffffffffffffffffffffffff1916817bffffffffffffffffffffffffffffffffffffffffffffffffffffffff191614915050949350505050565b6060600082141561255c576040518060400160405280600181526020017f300000000000000000000000000000000000000000000000000000000000000081525090506126bc565b600082905060005b6000821461258e578080612577906139af565b915050600a8261258791906137d7565b9150612564565b60008167ffffffffffffffff8111156125d0577f4e487b7100000000000000000000000000000000000000000000000000000000600052604160045260246000fd5b6040519080825280601f01601f1916602001820160405280156126025781602001600182028036833780820191505090505b5090505b600085146126b55760018261261b9190613862565b9150600a8561262a91906139f8565b60306126369190613781565b60f81b818381518110612672577f4e487b7100000000000000000000000000000000000000000000000000000000600052603260045260246000fd5b60200101907effffffffffffffffffffffffffffffffffffffffffffffffffffffffffffff1916908160001a905350600a856126ae91906137d7565b9450612606565b8093505050505b919050565b60009392505050565b6126d483836129bb565b60008373ffffffffffffffffffffffffffffffffffffffff163b1461276257600080549050600083820390505b61271460008683806001019450866123b4565b61274a576040517fd1a57ed600000000000000000000000000000000000000000000000000000000815260040160405180910390fd5b81811061270157816000541461275f57600080fd5b50505b505050565b60006127728361203b565b9050600081905060008061278586612109565b9150915084156127ee576127a1818461279c612026565b61212b565b6127ed576127b6836127b1612026565b611e35565b6127ec576040517f59c896be00000000000000000000000000000000000000000000000000000000815260040160405180910390fd5b5b5b6127fc83600088600161216f565b801561280757600082555b600160806001901b03600560008573ffffffffffffffffffffffffffffffffffffffff1673ffffffffffffffffffffffffffffffffffffffff168152602001908152602001600020600082825401925050819055506128af8361286c85600088612175565b7c02000000000000000000000000000000000000000000000000000000007c0100000000000000000000000000000000000000000000000000000000171761219d565b600460008881526020019081526020016000208190555060007c020000000000000000000000000000000000000000000000000000000085161415612937576000600187019050600060046000838152602001908152602001600020541415612935576000548114612934578460046000838152602001908152602001600020819055505b5b505b85600073ffffffffffffffffffffffffffffffffffffffff168473ffffffffffffffffffffffffffffffffffffffff167fddf252ad1be2c89b69c2b068fc378daa952ba7f163c4a11628f55a4df523b3ef60405160405180910390a46129a18360008860016121c8565b600160008154809291906001019190505550505050505050565b600080549050600073ffffffffffffffffffffffffffffffffffffffff168373ffffffffffffffffffffffffffffffffffffffff161415612a28576040517f2e07630000000000000000000000000000000000000000000000000000000000815260040160405180910390fd5b6000821415612a63576040517fb562e8dd00000000000000000000000000000000000000000000000000000000815260040160405180910390fd5b612a70600084838561216f565b600160406001901b178202600560008573ffffffffffffffffffffffffffffffffffffffff1673ffffffffffffffffffffffffffffffffffffffff16815260200190815260200160002060008282540192505081905550612ae783612ad86000866000612175565b612ae185612b8f565b1761219d565b60046000838152602001908152602001600020819055506000819050600083830190505b818060010192508573ffffffffffffffffffffffffffffffffffffffff16600073ffffffffffffffffffffffffffffffffffffffff167fddf252ad1be2c89b69c2b068fc378daa952ba7f163c4a11628f55a4df523b3ef60405160405180910390a4808210612b0b57806000819055505050612b8a60008483856121c8565b505050565b60006001821460e11b9050919050565b828054612bab9061394c565b90600052602060002090601f016020900481019282612bcd5760008555612c14565b82601f10612be657805160ff1916838001178555612c14565b82800160010185558215612c14579182015b82811115612c13578251825591602001919060010190612bf8565b5b509050612c219190612c25565b5090565b5b80821115612c3e576000816000905550600101612c26565b5090565b6000612c55612c5084613690565b61366b565b90508083825260208201905082856020860282011115612c7457600080fd5b60005b85811015612ca45781612c8a8882612dfc565b845260208401935060208301925050600181019050612c77565b5050509392505050565b6000612cc1612cbc846136bc565b61366b565b905082815260208101848484011115612cd957600080fd5b612ce484828561390a565b509392505050565b6000612cff612cfa846136ed565b61366b565b905082815260208101848484011115612d1757600080fd5b612d2284828561390a565b509392505050565b600081359050612d3981613d31565b92915050565b600082601f830112612d5057600080fd5b8135612d60848260208601612c42565b91505092915050565b600081359050612d7881613d48565b92915050565b600081359050612d8d81613d5f565b92915050565b600081519050612da281613d5f565b92915050565b600082601f830112612db957600080fd5b8135612dc9848260208601612cae565b91505092915050565b600082601f830112612de357600080fd5b8135612df3848260208601612cec565b91505092915050565b600081359050612e0b81613d76565b92915050565b600060208284031215612e2357600080fd5b6000612e3184828501612d2a565b91505092915050565b60008060408385031215612e4d57600080fd5b6000612e5b85828601612d2a565b9250506020612e6c85828601612d2a565b9150509250929050565b600080600060608486031215612e8b57600080fd5b6000612e9986828701612d2a565b9350506020612eaa86828701612d2a565b9250506040612ebb86828701612dfc565b9150509250925092565b60008060008060808587031215612edb57600080fd5b6000612ee987828801612d2a565b9450506020612efa87828801612d2a565b9350506040612f0b87828801612dfc565b925050606085013567ffffffffffffffff811115612f2857600080fd5b612f3487828801612da8565b91505092959194509250565b60008060408385031215612f5357600080fd5b6000612f6185828601612d2a565b9250506020612f7285828601612d69565b9150509250929050565b60008060408385031215612f8f57600080fd5b6000612f9d85828601612d2a565b9250506020612fae85828601612dfc565b9150509250929050565b600060208284031215612fca57600080fd5b600082013567ffffffffffffffff811115612fe457600080fd5b612ff084828501612d3f565b91505092915050565b60006020828403121561300b57600080fd5b600061301984828501612d69565b91505092915050565b60006020828403121561303457600080fd5b600061304284828501612d7e565b91505092915050565b60006020828403121561305d57600080fd5b600061306b84828501612d93565b91505092915050565b60006020828403121561308657600080fd5b600082013567ffffffffffffffff8111156130a057600080fd5b6130ac84828501612dd2565b91505092915050565b6000602082840312156130c757600080fd5b60006130d584828501612dfc565b91505092915050565b6130e781613896565b82525050565b6130f6816138a8565b82525050565b600061310782613733565b6131118185613749565b9350613121818560208601613919565b61312a81613ae5565b840191505092915050565b60006131408261373e565b61314a8185613765565b935061315a818560208601613919565b61316381613ae5565b840191505092915050565b60006131798261373e565b6131838185613776565b9350613193818560208601613919565b80840191505092915050565b600081546131ac8161394c565b6131b68186613776565b945060018216600081146131d157600181146131e257613215565b60ff19831686528186019350613215565b6131eb8561371e565b60005b8381101561320d578154818901526001820191506020810190506131ee565b838801955050505b50505092915050565b600061322b600783613765565b915061323682613af6565b602082019050919050565b600061324e601f83613765565b915061325982613b1f565b602082019050919050565b6000613271602683613765565b915061327c82613b48565b604082019050919050565b6000613294603a83613765565b915061329f82613b97565b604082019050919050565b60006132b7601d83613765565b91506132c282613be6565b602082019050919050565b60006132da600583613776565b91506132e582613c0f565b600582019050919050565b60006132fd602083613765565b915061330882613c38565b602082019050919050565b6000613320601883613765565b915061332b82613c61565b602082019050919050565b6000613343601d83613765565b915061334e82613c8a565b602082019050919050565b600061336660008361375a565b915061337182613cb3565b600082019050919050565b6000613389601383613765565b915061339482613cb6565b602082019050919050565b60006133ac601f83613765565b91506133b782613cdf565b602082019050919050565b60006133cf600183613776565b91506133da82613d08565b600182019050919050565b6133ee81613900565b82525050565b6000613400828561319f565b915061340b826133c2565b9150613417828461316e565b9150613422826132cd565b91508190509392505050565b600061343982613359565b9150819050919050565b600060208201905061345860008301846130de565b92915050565b600060808201905061347360008301876130de565b61348060208301866130de565b61348d60408301856133e5565b818103606083015261349f81846130fc565b905095945050505050565b60006040820190506134bf60008301856130de565b6134cc60208301846133e5565b9392505050565b60006020820190506134e860008301846130ed565b92915050565b600060208201905081810360008301526135088184613135565b905092915050565b600060208201905081810360008301526135298161321e565b9050919050565b6000602082019050818103600083015261354981613241565b9050919050565b6000602082019050818103600083015261356981613264565b9050919050565b6000602082019050818103600083015261358981613287565b9050919050565b600060208201905081810360008301526135a9816132aa565b9050919050565b600060208201905081810360008301526135c9816132f0565b9050919050565b600060208201905081810360008301526135e981613313565b9050919050565b6000602082019050818103600083015261360981613336565b9050919050565b600060208201905081810360008301526136298161337c565b9050919050565b600060208201905081810360008301526136498161339f565b9050919050565b600060208201905061366560008301846133e5565b92915050565b6000613675613686565b9050613681828261397e565b919050565b6000604051905090565b600067ffffffffffffffff8211156136ab576136aa613ab6565b5b602082029050602081019050919050565b600067ffffffffffffffff8211156136d7576136d6613ab6565b5b6136e082613ae5565b9050602081019050919050565b600067ffffffffffffffff82111561370857613707613ab6565b5b61371182613ae5565b9050602081019050919050565b60008190508160005260206000209050919050565b600081519050919050565b600081519050919050565b600082825260208201905092915050565b600081905092915050565b600082825260208201905092915050565b600081905092915050565b600061378c82613900565b915061379783613900565b9250827fffffffffffffffffffffffffffffffffffffffffffffffffffffffffffffffff038211156137cc576137cb613a29565b5b828201905092915050565b60006137e282613900565b91506137ed83613900565b9250826137fd576137fc613a58565b5b828204905092915050565b600061381382613900565b915061381e83613900565b9250817fffffffffffffffffffffffffffffffffffffffffffffffffffffffffffffffff048311821515161561385757613856613a29565b5b828202905092915050565b600061386d82613900565b915061387883613900565b92508282101561388b5761388a613a29565b5b828203905092915050565b60006138a1826138e0565b9050919050565b60008115159050919050565b60007fffffffff0000000000000000000000000000000000000000000000000000000082169050919050565b600073ffffffffffffffffffffffffffffffffffffffff82169050919050565b6000819050919050565b82818337600083830152505050565b60005b8381101561393757808201518184015260208101905061391c565b83811115613946576000848401525b50505050565b6000600282049050600182168061396457607f821691505b6020821081141561397857613977613a87565b5b50919050565b61398782613ae5565b810181811067ffffffffffffffff821117156139a6576139a5613ab6565b5b80604052505050565b60006139ba82613900565b91507fffffffffffffffffffffffffffffffffffffffffffffffffffffffffffffffff8214156139ed576139ec613a29565b5b600182019050919050565b6000613a0382613900565b9150613a0e83613900565b925082613a1e57613a1d613a58565b5b828206905092915050565b7f4e487b7100000000000000000000000000000000000000000000000000000000600052601160045260246000fd5b7f4e487b7100000000000000000000000000000000000000000000000000000000600052601260045260246000fd5b7f4e487b7100000000000000000000000000000000000000000000000000000000600052602260045260246000fd5b7f4e487b7100000000000000000000000000000000000000000000000000000000600052604160045260246000fd5b6000601f19601f8301169050919050565b7f4e6f206d6f726500000000000000000000000000000000000000000000000000600082015250565b7f55524920717565727920666f72206e6f6e6578697374656e7420746f6b656e00600082015250565b7f4f776e61626c653a206e6577206f776e657220697320746865207a65726f206160008201527f6464726573730000000000000000000000000000000000000000000000000000602082015250565b7f416464726573733a20756e61626c6520746f2073656e642076616c75652c207260008201527f6563697069656e74206d61792068617665207265766572746564000000000000602082015250565b7f416464726573733a20696e73756666696369656e742062616c616e6365000000600082015250565b7f2e6a736f6e000000000000000000000000000000000000000000000000000000600082015250565b7f4f776e61626c653a2063616c6c6572206973206e6f7420746865206f776e6572600082015250565b7f4d696e74696e67206973206e6f74206c697665207965742e0000000000000000600082015250565b7f506c656173652073656e642074686520657861637420616d6f756e742e000000600082015250565b50565b7f4d61782070657220545820726561636865642e00000000000000000000000000600082015250565b7f5265656e7472616e637947756172643a207265656e7472616e742063616c6c00600082015250565b7f2f00000000000000000000000000000000000000000000000000000000000000600082015250565b613d3a81613896565b8114613d4557600080fd5b50565b613d51816138a8565b8114613d5c57600080fd5b50565b613d68816138b4565b8114613d7357600080fd5b50565b613d7f81613900565b8114613d8a57600080fd5b5056fea26469706673582212206b9243c7f71671c38331c1495fbb32f5ca96bcdd301179159315f639d1ca5f7064736f6c6343000804003368747470733a2f2f62616679626569667636736f646a7a757036686a646167356978656d65636236373269636772367735647a64797a786568677275733276676c63612e697066732e6e667473746f726167652e6c696e6b2f6d65746164617461",
  "linkReferences": {},
  "deployedLinkReferences": {}
}